{
  "_format": "hh-sol-artifact-1",
  "contractName": "Escrow",
  "sourceName": "contracts/Escrow.sol",
  "abi": [
    {
      "inputs": [
        {
          "internalType": "address",
          "name": "_buyer",
          "type": "address"
        },
        {
          "internalType": "address",
          "name": "_seller",
          "type": "address"
        },
        {
          "internalType": "uint256",
          "name": "_amount",
          "type": "uint256"
        }
      ],
      "stateMutability": "nonpayable",
      "type": "constructor"
    },
    {
      "inputs": [],
      "name": "amount",
      "outputs": [
        {
          "internalType": "uint256",
          "name": "",
          "type": "uint256"
        }
      ],
      "stateMutability": "view",
      "type": "function"
    },
    {
      "inputs": [],
      "name": "buyer",
      "outputs": [
        {
          "internalType": "address",
          "name": "",
          "type": "address"
        }
      ],
      "stateMutability": "view",
      "type": "function"
    },
    {
      "inputs": [],
      "name": "carReceived",
      "outputs": [
        {
          "internalType": "bool",
          "name": "",
          "type": "bool"
        }
      ],
      "stateMutability": "view",
      "type": "function"
    },
    {
      "inputs": [],
      "name": "confirmCarReceived",
      "outputs": [],
      "stateMutability": "nonpayable",
      "type": "function"
    },
    {
      "inputs": [],
      "name": "seller",
      "outputs": [
        {
          "internalType": "address",
          "name": "",
          "type": "address"
        }
      ],
      "stateMutability": "view",
      "type": "function"
    },
    {
      "inputs": [],
      "name": "sendAmountBackToBuyer",
      "outputs": [],
      "stateMutability": "nonpayable",
      "type": "function"
    },
    {
      "inputs": [],
      "name": "sendAmountToSeller",
      "outputs": [],
      "stateMutability": "nonpayable",
      "type": "function"
    }
  ],
  "bytecode": "0x608060405234801561001057600080fd5b506040516107c63803806107c683398181016040528101906100329190610176565b826000806101000a81548173ffffffffffffffffffffffffffffffffffffffff021916908373ffffffffffffffffffffffffffffffffffffffff16021790555081600160006101000a81548173ffffffffffffffffffffffffffffffffffffffff021916908373ffffffffffffffffffffffffffffffffffffffff160217905550806002819055506000600360006101000a81548160ff0219169083151502179055505050506101c9565b600080fd5b600073ffffffffffffffffffffffffffffffffffffffff82169050919050565b600061010d826100e2565b9050919050565b61011d81610102565b811461012857600080fd5b50565b60008151905061013a81610114565b92915050565b6000819050919050565b61015381610140565b811461015e57600080fd5b50565b6000815190506101708161014a565b92915050565b60008060006060848603121561018f5761018e6100dd565b5b600061019d8682870161012b565b93505060206101ae8682870161012b565b92505060406101bf86828701610161565b9150509250925092565b6105ee806101d86000396000f3fe608060405234801561001057600080fd5b506004361061007d5760003560e01c80639f8453fd1161005b5780639f8453fd146100c8578063aa8c217c146100d2578063f5d8b6d8146100f0578063fd120fd8146100fa5761007d565b806308551a531461008257806363085651146100a05780637150d8ae146100aa575b600080fd5b61008a610118565b60405161009791906103de565b60405180910390f35b6100a861013e565b005b6100b26101f9565b6040516100bf91906103de565b60405180910390f35b6100d061021d565b005b6100da6102c8565b6040516100e79190610412565b60405180910390f35b6100f86102ce565b005b61010261038a565b60405161010f9190610448565b60405180910390f35b600160009054906101000a900473ffffffffffffffffffffffffffffffffffffffff1681565b600360009054906101000a900460ff161561018e576040517f08c379a0000000000000000000000000000000000000000000000000000000008152600401610185906104c0565b60405180910390fd5b60008054906101000a900473ffffffffffffffffffffffffffffffffffffffff1673ffffffffffffffffffffffffffffffffffffffff166108fc6002549081150290604051600060405180830381858888f193505050501580156101f6573d6000803e3d6000fd5b50565b60008054906101000a900473ffffffffffffffffffffffffffffffffffffffff1681565b60008054906101000a900473ffffffffffffffffffffffffffffffffffffffff1673ffffffffffffffffffffffffffffffffffffffff163373ffffffffffffffffffffffffffffffffffffffff16146102ab576040517f08c379a00000000000000000000000000000000000000000000000000000000081526004016102a29061052c565b60405180910390fd5b6001600360006101000a81548160ff021916908315150217905550565b60025481565b600360009054906101000a900460ff1661031d576040517f08c379a000000000000000000000000000000000000000000000000000000000815260040161031490610598565b60405180910390fd5b600160009054906101000a900473ffffffffffffffffffffffffffffffffffffffff1673ffffffffffffffffffffffffffffffffffffffff166108fc6002549081150290604051600060405180830381858888f19350505050158015610387573d6000803e3d6000fd5b50565b600360009054906101000a900460ff1681565b600073ffffffffffffffffffffffffffffffffffffffff82169050919050565b60006103c88261039d565b9050919050565b6103d8816103bd565b82525050565b60006020820190506103f360008301846103cf565b92915050565b6000819050919050565b61040c816103f9565b82525050565b60006020820190506104276000830184610403565b92915050565b60008115159050919050565b6104428161042d565b82525050565b600060208201905061045d6000830184610439565b92915050565b600082825260208201905092915050565b7f43617220686173206265656e2072656365697665640000000000000000000000600082015250565b60006104aa601583610463565b91506104b582610474565b602082019050919050565b600060208201905081810360008301526104d98161049d565b9050919050565b7f4f6e6c792062757965722063616e20636f6e6669726d00000000000000000000600082015250565b6000610516601683610463565b9150610521826104e0565b602082019050919050565b6000602082019050818103600083015261054581610509565b9050919050565b7f43617220686173206e6f74206265656e20726563656976656400000000000000600082015250565b6000610582601983610463565b915061058d8261054c565b602082019050919050565b600060208201905081810360008301526105b181610575565b905091905056fea264697066735822122056f632287324a81455ea283fe9beaddabbf86e40f9b591705d548774136d5e5a64736f6c634300081b0033",
  "linkReferences": {},
  "deployedLinkReferences": {}
}