{
  "_format": "hh-sol-artifact-1",
  "contractName": "CarRental",
  "sourceName": "contracts/CarRental.sol",
  "abi": [
    {
      "inputs": [],
      "stateMutability": "nonpayable",
      "type": "constructor"
    },
    {
      "inputs": [
        {
          "internalType": "address",
          "name": "_buyer",
          "type": "address"
        }
      ],
      "name": "confirmCarReceived",
      "outputs": [],
      "stateMutability": "nonpayable",
      "type": "function"
    },
    {
      "inputs": [
        {
          "internalType": "address",
          "name": "",
          "type": "address"
        }
      ],
      "name": "escrows",
      "outputs": [
        {
          "internalType": "contract Escrow",
          "name": "",
          "type": "address"
        }
      ],
      "stateMutability": "view",
      "type": "function"
    },
    {
      "inputs": [],
      "name": "owner",
      "outputs": [
        {
          "internalType": "address",
          "name": "",
          "type": "address"
        }
      ],
      "stateMutability": "view",
      "type": "function"
    },
    {
      "inputs": [
        {
          "internalType": "address",
          "name": "_buyer",
          "type": "address"
        },
        {
          "internalType": "uint256",
          "name": "_amount",
          "type": "uint256"
        }
      ],
      "name": "rentCar",
      "outputs": [],
      "stateMutability": "nonpayable",
      "type": "function"
    },
    {
      "inputs": [
        {
          "internalType": "address",
          "name": "_buyer",
          "type": "address"
        }
      ],
      "name": "sendAmountBackToBuyer",
      "outputs": [],
      "stateMutability": "nonpayable",
      "type": "function"
    },
    {
      "inputs": [
        {
          "internalType": "address",
          "name": "_buyer",
          "type": "address"
        }
      ],
      "name": "sendAmountToSeller",
      "outputs": [],
      "stateMutability": "nonpayable",
      "type": "function"
    }
  ],
  "bytecode": "0x6080604052348015600f57600080fd5b50336000806101000a81548173ffffffffffffffffffffffffffffffffffffffff021916908373ffffffffffffffffffffffffffffffffffffffff1602179055506110918061005f6000396000f3fe608060405234801561001057600080fd5b50600436106100625760003560e01c80631b4a7643146100675780633474a31314610083578063477230b21461009f5780638ba0de13146100cf5780638da5cb5b146100eb578063f1426ca014610109575b600080fd5b610081600480360381019061007c919061061f565b610125565b005b61009d60048036038101906100989190610682565b61025b565b005b6100b960048036038101906100b4919061061f565b6103c8565b6040516100c69190610721565b60405180910390f35b6100e960048036038101906100e4919061061f565b6103fb565b005b6100f36104c3565b604051610100919061074b565b60405180910390f35b610123600480360381019061011e919061061f565b6104e7565b005b8073ffffffffffffffffffffffffffffffffffffffff163373ffffffffffffffffffffffffffffffffffffffff1614610193576040517f08c379a000000000000000000000000000000000000000000000000000000000815260040161018a906107c3565b60405180910390fd5b6000600160008373ffffffffffffffffffffffffffffffffffffffff1673ffffffffffffffffffffffffffffffffffffffff16815260200190815260200160002060009054906101000a900473ffffffffffffffffffffffffffffffffffffffff1690508073ffffffffffffffffffffffffffffffffffffffff16639f8453fd6040518163ffffffff1660e01b8152600401600060405180830381600087803b15801561023f57600080fd5b505af1158015610253573d6000803e3d6000fd5b505050505050565b60008054906101000a900473ffffffffffffffffffffffffffffffffffffffff1673ffffffffffffffffffffffffffffffffffffffff163373ffffffffffffffffffffffffffffffffffffffff16146102e9576040517f08c379a00000000000000000000000000000000000000000000000000000000081526004016102e09061082f565b60405180910390fd5b60008260008054906101000a900473ffffffffffffffffffffffffffffffffffffffff168360405161031a906105af565b6103269392919061085e565b604051809103906000f080158015610342573d6000803e3d6000fd5b50905080600160008573ffffffffffffffffffffffffffffffffffffffff1673ffffffffffffffffffffffffffffffffffffffff16815260200190815260200160002060006101000a81548173ffffffffffffffffffffffffffffffffffffffff021916908373ffffffffffffffffffffffffffffffffffffffff160217905550505050565b60016020528060005260406000206000915054906101000a900473ffffffffffffffffffffffffffffffffffffffff1681565b6000600160008373ffffffffffffffffffffffffffffffffffffffff1673ffffffffffffffffffffffffffffffffffffffff16815260200190815260200160002060009054906101000a900473ffffffffffffffffffffffffffffffffffffffff1690508073ffffffffffffffffffffffffffffffffffffffff1663f5d8b6d86040518163ffffffff1660e01b8152600401600060405180830381600087803b1580156104a757600080fd5b505af11580156104bb573d6000803e3d6000fd5b505050505050565b60008054906101000a900473ffffffffffffffffffffffffffffffffffffffff1681565b6000600160008373ffffffffffffffffffffffffffffffffffffffff1673ffffffffffffffffffffffffffffffffffffffff16815260200190815260200160002060009054906101000a900473ffffffffffffffffffffffffffffffffffffffff1690508073ffffffffffffffffffffffffffffffffffffffff1663630856516040518163ffffffff1660e01b8152600401600060405180830381600087803b15801561059357600080fd5b505af11580156105a7573d6000803e3d6000fd5b505050505050565b6107c68061089683390190565b600080fd5b600073ffffffffffffffffffffffffffffffffffffffff82169050919050565b60006105ec826105c1565b9050919050565b6105fc816105e1565b811461060757600080fd5b50565b600081359050610619816105f3565b92915050565b600060208284031215610635576106346105bc565b5b60006106438482850161060a565b91505092915050565b6000819050919050565b61065f8161064c565b811461066a57600080fd5b50565b60008135905061067c81610656565b92915050565b60008060408385031215610699576106986105bc565b5b60006106a78582860161060a565b92505060206106b88582860161066d565b9150509250929050565b6000819050919050565b60006106e76106e26106dd846105c1565b6106c2565b6105c1565b9050919050565b60006106f9826106cc565b9050919050565b600061070b826106ee565b9050919050565b61071b81610700565b82525050565b60006020820190506107366000830184610712565b92915050565b610745816105e1565b82525050565b6000602082019050610760600083018461073c565b92915050565b600082825260208201905092915050565b7f4f6e6c792062757965722063616e20636f6e6669726d00000000000000000000600082015250565b60006107ad601683610766565b91506107b882610777565b602082019050919050565b600060208201905081810360008301526107dc816107a0565b9050919050565b7f4f6e6c79206f776e65722063616e2072656e7420636172000000000000000000600082015250565b6000610819601783610766565b9150610824826107e3565b602082019050919050565b600060208201905081810360008301526108488161080c565b9050919050565b6108588161064c565b82525050565b6000606082019050610873600083018661073c565b610880602083018561073c565b61088d604083018461084f565b94935050505056fe608060405234801561001057600080fd5b506040516107c63803806107c683398181016040528101906100329190610176565b826000806101000a81548173ffffffffffffffffffffffffffffffffffffffff021916908373ffffffffffffffffffffffffffffffffffffffff16021790555081600160006101000a81548173ffffffffffffffffffffffffffffffffffffffff021916908373ffffffffffffffffffffffffffffffffffffffff160217905550806002819055506000600360006101000a81548160ff0219169083151502179055505050506101c9565b600080fd5b600073ffffffffffffffffffffffffffffffffffffffff82169050919050565b600061010d826100e2565b9050919050565b61011d81610102565b811461012857600080fd5b50565b60008151905061013a81610114565b92915050565b6000819050919050565b61015381610140565b811461015e57600080fd5b50565b6000815190506101708161014a565b92915050565b60008060006060848603121561018f5761018e6100dd565b5b600061019d8682870161012b565b93505060206101ae8682870161012b565b92505060406101bf86828701610161565b9150509250925092565b6105ee806101d86000396000f3fe608060405234801561001057600080fd5b506004361061007d5760003560e01c80639f8453fd1161005b5780639f8453fd146100c8578063aa8c217c146100d2578063f5d8b6d8146100f0578063fd120fd8146100fa5761007d565b806308551a531461008257806363085651146100a05780637150d8ae146100aa575b600080fd5b61008a610118565b60405161009791906103de565b60405180910390f35b6100a861013e565b005b6100b26101f9565b6040516100bf91906103de565b60405180910390f35b6100d061021d565b005b6100da6102c8565b6040516100e79190610412565b60405180910390f35b6100f86102ce565b005b61010261038a565b60405161010f9190610448565b60405180910390f35b600160009054906101000a900473ffffffffffffffffffffffffffffffffffffffff1681565b600360009054906101000a900460ff161561018e576040517f08c379a0000000000000000000000000000000000000000000000000000000008152600401610185906104c0565b60405180910390fd5b60008054906101000a900473ffffffffffffffffffffffffffffffffffffffff1673ffffffffffffffffffffffffffffffffffffffff166108fc6002549081150290604051600060405180830381858888f193505050501580156101f6573d6000803e3d6000fd5b50565b60008054906101000a900473ffffffffffffffffffffffffffffffffffffffff1681565b60008054906101000a900473ffffffffffffffffffffffffffffffffffffffff1673ffffffffffffffffffffffffffffffffffffffff163373ffffffffffffffffffffffffffffffffffffffff16146102ab576040517f08c379a00000000000000000000000000000000000000000000000000000000081526004016102a29061052c565b60405180910390fd5b6001600360006101000a81548160ff021916908315150217905550565b60025481565b600360009054906101000a900460ff1661031d576040517f08c379a000000000000000000000000000000000000000000000000000000000815260040161031490610598565b60405180910390fd5b600160009054906101000a900473ffffffffffffffffffffffffffffffffffffffff1673ffffffffffffffffffffffffffffffffffffffff166108fc6002549081150290604051600060405180830381858888f19350505050158015610387573d6000803e3d6000fd5b50565b600360009054906101000a900460ff1681565b600073ffffffffffffffffffffffffffffffffffffffff82169050919050565b60006103c88261039d565b9050919050565b6103d8816103bd565b82525050565b60006020820190506103f360008301846103cf565b92915050565b6000819050919050565b61040c816103f9565b82525050565b60006020820190506104276000830184610403565b92915050565b60008115159050919050565b6104428161042d565b82525050565b600060208201905061045d6000830184610439565b92915050565b600082825260208201905092915050565b7f43617220686173206265656e2072656365697665640000000000000000000000600082015250565b60006104aa601583610463565b91506104b582610474565b602082019050919050565b600060208201905081810360008301526104d98161049d565b9050919050565b7f4f6e6c792062757965722063616e20636f6e6669726d00000000000000000000600082015250565b6000610516601683610463565b9150610521826104e0565b602082019050919050565b6000602082019050818103600083015261054581610509565b9050919050565b7f43617220686173206e6f74206265656e20726563656976656400000000000000600082015250565b6000610582601983610463565b915061058d8261054c565b602082019050919050565b600060208201905081810360008301526105b181610575565b905091905056fea264697066735822122056f632287324a81455ea283fe9beaddabbf86e40f9b591705d548774136d5e5a64736f6c634300081b0033a2646970667358221220cc18829b0bb5a3640687b08cca1298c1a5d78f3d98dfdcf4fdc268a6c49248f764736f6c634300081b0033",
  "linkReferences": {},
  "deployedLinkReferences": {}
}